{
  "address": "0xfE31685c5743521aC391c217b51a044af6b55fE4",
  "abi": [
    {
      "inputs": [
        {
          "internalType": "address",
          "name": "swapRouter_",
          "type": "address"
        }
      ],
      "stateMutability": "nonpayable",
      "type": "constructor"
    },
    {
      "inputs": [
        {
          "internalType": "address",
          "name": "target",
          "type": "address"
        }
      ],
      "name": "AddressEmptyCode",
      "type": "error"
    },
    {
      "inputs": [
        {
          "internalType": "address",
          "name": "account",
          "type": "address"
        }
      ],
      "name": "AddressInsufficientBalance",
      "type": "error"
    },
    {
      "inputs": [],
      "name": "FailedInnerCall",
      "type": "error"
    },
    {
      "inputs": [
        {
          "internalType": "address",
          "name": "owner",
          "type": "address"
        }
      ],
      "name": "OwnableInvalidOwner",
      "type": "error"
    },
    {
      "inputs": [
        {
          "internalType": "address",
          "name": "account",
          "type": "address"
        }
      ],
      "name": "OwnableUnauthorizedAccount",
      "type": "error"
    },
    {
      "inputs": [
        {
          "internalType": "address",
          "name": "token",
          "type": "address"
        }
      ],
      "name": "SafeERC20FailedOperation",
      "type": "error"
    },
    {
      "inputs": [
        {
          "internalType": "address",
          "name": "token0",
          "type": "address"
        },
        {
          "internalType": "address",
          "name": "token1",
          "type": "address"
        }
      ],
      "name": "SwapHelperPairTokensNotEqWeth",
      "type": "error"
    },
    {
      "inputs": [],
      "name": "SwapRouterIsZero",
      "type": "error"
    },
    {
      "anonymous": false,
      "inputs": [
        {
          "indexed": false,
          "internalType": "uint256",
          "name": "deviation",
          "type": "uint256"
        }
      ],
      "name": "AcceptedDeviationPrice",
      "type": "event"
    },
    {
      "anonymous": false,
      "inputs": [
        {
          "indexed": true,
          "internalType": "address",
          "name": "previousOwner",
          "type": "address"
        },
        {
          "indexed": true,
          "internalType": "address",
          "name": "newOwner",
          "type": "address"
        }
      ],
      "name": "OwnershipTransferred",
      "type": "event"
    },
    {
      "anonymous": false,
      "inputs": [
        {
          "indexed": true,
          "internalType": "address",
          "name": "pool",
          "type": "address"
        },
        {
          "indexed": false,
          "internalType": "uint256",
          "name": "amountIn",
          "type": "uint256"
        },
        {
          "indexed": false,
          "internalType": "uint256",
          "name": "amountOut",
          "type": "uint256"
        }
      ],
      "name": "Swapped",
      "type": "event"
    },
    {
      "inputs": [],
      "name": "_swapRouter",
      "outputs": [
        {
          "internalType": "contract ISwapRouter",
          "name": "",
          "type": "address"
        }
      ],
      "stateMutability": "view",
      "type": "function"
    },
    {
      "inputs": [],
      "name": "_weth",
      "outputs": [
        {
          "internalType": "address",
          "name": "",
          "type": "address"
        }
      ],
      "stateMutability": "view",
      "type": "function"
    },
    {
      "inputs": [],
      "name": "owner",
      "outputs": [
        {
          "internalType": "address",
          "name": "",
          "type": "address"
        }
      ],
      "stateMutability": "view",
      "type": "function"
    },
    {
      "inputs": [],
      "name": "renounceOwnership",
      "outputs": [],
      "stateMutability": "nonpayable",
      "type": "function"
    },
    {
      "inputs": [
        {
          "internalType": "bytes",
          "name": "data",
          "type": "bytes"
        }
      ],
      "name": "swap",
      "outputs": [],
      "stateMutability": "nonpayable",
      "type": "function"
    },
    {
      "inputs": [
        {
          "internalType": "address",
          "name": "newOwner",
          "type": "address"
        }
      ],
      "name": "transferOwnership",
      "outputs": [],
      "stateMutability": "nonpayable",
      "type": "function"
    }
  ],
  "transactionHash": "0x0310da660a48ac2102f137b6ecab7a96311a882dc3d99a38050f8c97b2d65289",
  "args": [
    "0x68b3465833fb72A70ecDF485E0e4C7bD8665Fc45"
  ],
  "numDeployments": 1,
  "solcInputHash": "80d0a08cad545cf03431ffa2cbf2afd3",
  "bytecode": "0x60c060405234801561001057600080fd5b5060405161105b38038061105b83398101604081905261002f91610156565b338061005557604051631e4fbdf760e01b81526000600482015260240160405180910390fd5b61005e81610106565b506001600160a01b038116610086576040516317d38f0960e01b815260040160405180910390fd5b6001600160a01b03811660a0819052604080516312a9293f60e21b81529051634aa4a4fc916004808201926020929091908290030181865afa1580156100d0573d6000803e3d6000fd5b505050506040513d601f19601f820116820180604052508101906100f49190610156565b6001600160a01b031660805250610186565b600080546001600160a01b038381166001600160a01b0319831681178455604051919092169283917f8be0079c531659141344cd1fd0a4f28419497f9722a3daafe3b4186f6b6457e09190a35050565b60006020828403121561016857600080fd5b81516001600160a01b038116811461017f57600080fd5b9392505050565b60805160a051610e9c6101bf60003960008181607c0152818161036d015261039601526000818161010701526101400152610e9c6000f3fe608060405234801561001057600080fd5b50600436106100725760003560e01c80638da5cb5b116100505780638da5cb5b146100e4578063a176459514610102578063f2fde38b1461012957600080fd5b8063206c17bb14610077578063627dd56a146100c7578063715018a6146100dc575b600080fd5b61009e7f000000000000000000000000000000000000000000000000000000000000000081565b60405173ffffffffffffffffffffffffffffffffffffffff909116815260200160405180910390f35b6100da6100d5366004610bc9565b61013c565b005b6100da6105ed565b60005473ffffffffffffffffffffffffffffffffffffffff1661009e565b61009e7f000000000000000000000000000000000000000000000000000000000000000081565b6100da610137366004610cba565b610601565b60007f0000000000000000000000000000000000000000000000000000000000000000905060008060008480602001905181019061017a9190610cd7565b925092509250600083905060008173ffffffffffffffffffffffffffffffffffffffff16630dfe16816040518163ffffffff1660e01b8152600401602060405180830381865afa1580156101d2573d6000803e3d6000fd5b505050506040513d601f19601f820116820180604052508101906101f69190610d0e565b905060008273ffffffffffffffffffffffffffffffffffffffff1663d21220a76040518163ffffffff1660e01b8152600401602060405180830381865afa158015610245573d6000803e3d6000fd5b505050506040513d601f19601f820116820180604052508101906102699190610d0e565b90508673ffffffffffffffffffffffffffffffffffffffff168273ffffffffffffffffffffffffffffffffffffffff16141580156102d357508673ffffffffffffffffffffffffffffffffffffffff168173ffffffffffffffffffffffffffffffffffffffff1614155b1561032f576040517f274ec95000000000000000000000000000000000000000000000000000000000815273ffffffffffffffffffffffffffffffffffffffff8084166004830152821660248201526044015b60405180910390fd5b61035173ffffffffffffffffffffffffffffffffffffffff8816333088610665565b61039273ffffffffffffffffffffffffffffffffffffffff88167f0000000000000000000000000000000000000000000000000000000000000000876106f4565b60007f000000000000000000000000000000000000000000000000000000000000000073ffffffffffffffffffffffffffffffffffffffff1663c04b8d596040518060a001604052808b8873ffffffffffffffffffffffffffffffffffffffff1663ddca3f436040518163ffffffff1660e01b8152600401602060405180830381865afa158015610427573d6000803e3d6000fd5b505050506040513d601f19601f8201168201806040525081019061044b9190610d2b565b8d73ffffffffffffffffffffffffffffffffffffffff168973ffffffffffffffffffffffffffffffffffffffff16146104845788610486565b875b604051606093841b7fffffffffffffffffffffffffffffffffffffffff000000000000000000000000908116602083015260e89390931b7fffffff0000000000000000000000000000000000000000000000000000000000166034820152921b166037820152604b0160405160208183030381529060405281526020013373ffffffffffffffffffffffffffffffffffffffff168152602001428152602001898152602001888152506040518263ffffffff1660e01b815260040161054b9190610d74565b6020604051808303816000875af115801561056a573d6000803e3d6000fd5b505050506040513d601f19601f8201168201806040525081019061058e9190610e0f565b604080518881526020810183905291925073ffffffffffffffffffffffffffffffffffffffff8916917f3a9a9f34f5831e9c8ecb66ab3aa308b2ff31eaca434615f6c9cadc656a9af71c910160405180910390a2505050505050505050565b6105f56107cc565b6105ff600061081f565b565b6106096107cc565b73ffffffffffffffffffffffffffffffffffffffff8116610659576040517f1e4fbdf700000000000000000000000000000000000000000000000000000000815260006004820152602401610326565b6106628161081f565b50565b60405173ffffffffffffffffffffffffffffffffffffffff84811660248301528381166044830152606482018390526106ee9186918216906323b872dd906084015b604051602081830303815290604052915060e01b6020820180517bffffffffffffffffffffffffffffffffffffffffffffffffffffffff8381831617835250505050610894565b50505050565b6040805173ffffffffffffffffffffffffffffffffffffffff8416602482015260448082018490528251808303909101815260649091019091526020810180517bffffffffffffffffffffffffffffffffffffffffffffffffffffffff167f095ea7b300000000000000000000000000000000000000000000000000000000179052610780848261092f565b6106ee5760405173ffffffffffffffffffffffffffffffffffffffff8481166024830152600060448301526107c291869182169063095ea7b3906064016106a7565b6106ee8482610894565b60005473ffffffffffffffffffffffffffffffffffffffff1633146105ff576040517f118cdaa7000000000000000000000000000000000000000000000000000000008152336004820152602401610326565b6000805473ffffffffffffffffffffffffffffffffffffffff8381167fffffffffffffffffffffffff0000000000000000000000000000000000000000831681178455604051919092169283917f8be0079c531659141344cd1fd0a4f28419497f9722a3daafe3b4186f6b6457e09190a35050565b60006108b673ffffffffffffffffffffffffffffffffffffffff8416836109f1565b905080516000141580156108db5750808060200190518101906108d99190610e28565b155b1561092a576040517f5274afe700000000000000000000000000000000000000000000000000000000815273ffffffffffffffffffffffffffffffffffffffff84166004820152602401610326565b505050565b60008060008473ffffffffffffffffffffffffffffffffffffffff16846040516109599190610e4a565b6000604051808303816000865af19150503d8060008114610996576040519150601f19603f3d011682016040523d82523d6000602084013e61099b565b606091505b50915091508180156109c55750805115806109c55750808060200190518101906109c59190610e28565b80156109e8575060008573ffffffffffffffffffffffffffffffffffffffff163b115b95945050505050565b60606109ff83836000610a06565b9392505050565b606081471015610a44576040517fcd786059000000000000000000000000000000000000000000000000000000008152306004820152602401610326565b6000808573ffffffffffffffffffffffffffffffffffffffff168486604051610a6d9190610e4a565b60006040518083038185875af1925050503d8060008114610aaa576040519150601f19603f3d011682016040523d82523d6000602084013e610aaf565b606091505b5091509150610abf868383610ac9565b9695505050505050565b606082610ade57610ad982610b58565b6109ff565b8151158015610b02575073ffffffffffffffffffffffffffffffffffffffff84163b155b15610b51576040517f9996b31500000000000000000000000000000000000000000000000000000000815273ffffffffffffffffffffffffffffffffffffffff85166004820152602401610326565b50806109ff565b805115610b685780518082602001fd5b6040517f1425ea4200000000000000000000000000000000000000000000000000000000815260040160405180910390fd5b7f4e487b7100000000000000000000000000000000000000000000000000000000600052604160045260246000fd5b600060208284031215610bdb57600080fd5b813567ffffffffffffffff80821115610bf357600080fd5b818401915084601f830112610c0757600080fd5b813581811115610c1957610c19610b9a565b604051601f82017fffffffffffffffffffffffffffffffffffffffffffffffffffffffffffffffe0908116603f01168101908382118183101715610c5f57610c5f610b9a565b81604052828152876020848701011115610c7857600080fd5b826020860160208301376000928101602001929092525095945050505050565b73ffffffffffffffffffffffffffffffffffffffff8116811461066257600080fd5b600060208284031215610ccc57600080fd5b81356109ff81610c98565b600080600060608486031215610cec57600080fd5b8351610cf781610c98565b602085015160409095015190969495509392505050565b600060208284031215610d2057600080fd5b81516109ff81610c98565b600060208284031215610d3d57600080fd5b815162ffffff811681146109ff57600080fd5b60005b83811015610d6b578181015183820152602001610d53565b50506000910152565b602081526000825160a0602084015280518060c0850152610d9c8160e0860160208501610d50565b73ffffffffffffffffffffffffffffffffffffffff60208601511660408501526040850151606085015260608501516080850152608085015160a085015260e07fffffffffffffffffffffffffffffffffffffffffffffffffffffffffffffffe0601f8301168501019250505092915050565b600060208284031215610e2157600080fd5b5051919050565b600060208284031215610e3a57600080fd5b815180151581146109ff57600080fd5b60008251610e5c818460208701610d50565b919091019291505056fea2646970667358221220d6c66a55fce95a26f94780c442f20faf95e5225f444023697300a15e6066020464736f6c63430008170033",
  "devdoc": {
    "errors": {
      "AddressEmptyCode(address)": [
        {
          "details": "There's no code at `target` (it is not a contract)."
        }
      ],
      "AddressInsufficientBalance(address)": [
        {
          "details": "The ETH balance of the account is not enough to perform the operation."
        }
      ],
      "FailedInnerCall()": [
        {
          "details": "A call to an address target failed. The target may have reverted."
        }
      ],
      "OwnableInvalidOwner(address)": [
        {
          "details": "The owner is not a valid owner account. (eg. `address(0)`)"
        }
      ],
      "OwnableUnauthorizedAccount(address)": [
        {
          "details": "The caller account is not authorized to perform an operation."
        }
      ],
      "SafeERC20FailedOperation(address)": [
        {
          "details": "An operation with an ERC20 token failed."
        }
      ]
    },
    "kind": "dev",
    "methods": {
      "owner()": {
        "details": "Returns the address of the current owner."
      },
      "renounceOwnership()": {
        "details": "Leaves the contract without owner. It will not be possible to call `onlyOwner` functions. Can only be called by the current owner. NOTE: Renouncing ownership will leave the contract without an owner, thereby disabling any functionality that is only available to the owner."
      },
      "transferOwnership(address)": {
        "details": "Transfers ownership of the contract to a new account (`newOwner`). Can only be called by the current owner."
      }
    },
    "version": 1
  },
  "userdoc": {
    "kind": "user",
    "methods": {},
    "version": 1
  },
  "storageLayout": {
    "storage": [
      {
        "astId": 8,
        "contract": "contracts/SwapHelperV3.sol:SwapHelperV3",
        "label": "_owner",
        "offset": 0,
        "slot": "0",
        "type": "t_address"
      }
    ],
    "types": {
      "t_address": {
        "encoding": "inplace",
        "label": "address",
        "numberOfBytes": "20"
      }
    }
  }
}